:100000000C9446000C9463000C9463000C94630001
:100010000C9463000C9463000C9463000C946300D4
:100020000C9463000C9463000C9463000C946300C4
:100030000C9463000C9463000C9463000C946300B4
:100040000C9463000C9463000C9463000C946300A4
:100050000C9463000C9463000C9463000C94630094
:100060000C9463000C9463000C9463000C94630084
:100070000C9463000C9463000C9463000C94630074
:100080000C9463000C9463000C94630011241FBE55
:10009000CFEFD0E1DEBFCDBF11E0A0E0B1E0E0E501
:1000A000F1E000E00BBF02C007900D92A030B10755
:1000B000D9F711E0A0E0B1E001C01D92A030B10776
:1000C000E1F70C9472000C94000001972FEF8F3F22
:1000D000920739F02FE037E22253304037FFFCCF50
:1000E000F4CF0895CFEFD0E1DEBFCDBFCFEFCABBD5
:1000F000C7BBC4BBC1BBC2B9C0936100C09364009D
:10010000CBBBC8BBC5BBC2BB9C2F9B7F93B98C2FFD
:100110008F7E80936200909365001A9A80916200AE
:1001200080618093620080916500846080936500A7
:1001300081E090E00E9465001A98809162008F7EB5
:1001400080936200C09580E197E20E946500D8CF5D
:00000001FF
