:100000000C9446000C945D000C945D000C945D0013
:100010000C945D000C945D000C945D000C945D00EC
:100020000C945D000C945D000C945D000C945D00DC
:100030000C945D000C945D000C945D000C945D00CC
:100040000C945D000C945D000C945D000C945D00BC
:100050000C945D000C945D000C945D000C945D00AC
:100060000C945D000C945D000C945D000C945D009C
:100070000C945D000C945D000C945D000C945D008C
:100080000C945D000C945D000C945D0011241FBE67
:10009000CFEFD0E1DEBFCDBF11E0A0E0B1E0EEEDEB
:1000A000F2E000E00BBF02C007900D92A030B10754
:1000B000D9F70E948E000C946D010C940000DF9320
:1000C000CF9300D000D00F92CDB7DEB79C838B8347
:1000D0000EC01A82198205C089819A8101969A837D
:1000E000898389819A8122E088359207A8F31D824D
:1000F0008B819C81009711F081E08D838B819C81A5
:1001000001979C838B832D81222319F70F900F90E9
:100110000F900F900F90CF91DF910895DF93CF93C1
:10012000CDB7DEB72A970FB6F894DEBF0FBECDBFAE
:10013000198618861F82E5E5F0E080EC8083E3E213
:10014000F0E01082A2E2B0E0E2E2F0E080818861BB
:100150008C9388EE93E00E945F00EAE0F3E88081F0
:10016000882F90E098878F838F819885982F882794
:1001700098878F83EBE0F3E88081282F30E08F8130
:100180009885822B932B98878F838F81988520E584
:100190008037920719F489858160898780E091E131
:1001A0009E838D8380E09CE69C838B831A821982D8
:1001B00031C01A862D813E8189819A81F901E80F2B
:1001C000F91F85E580832D813E8189819A81F9011E
:1001D000E80FF91F80818A878A85853511F52D8181
:1001E0003E8189819A81F901E80FF91F8AEA8083AB
:1001F0001A862D813E8189819A81F901E80FF91FC4
:1002000080818A878A858A3A61F489819A810196F8
:100210009A83898329813A818B819C8128173907A8
:1002200040F229813A818B819C812817390719F482
:100230008985826089878985882F90E08170907098
:100240008823B1F0A3E2B0E0E3E2F0E08081877FB1
:100250008C9382E390E00E945F00A3E2B0E0E3E2CF
:10026000F0E0808188608C9388EE93E00E945F00CC
:100270008985882F90E082709070009709F46DCF87
:10028000A3E2B0E0E3E2F0E08081877F8C9382E339
:1002900090E00E945F00A3E2B0E0E3E2F0E0808142
:1002A00088608C9382E390E00E945F00A3E2B0E05C
:1002B000E3E2F0E08081877F8C9382E390E00E940C
:1002C0005F00A3E2B0E0E3E2F0E0808188608C931D
:0E02D00088EE93E00E945F0040CFF894FFCFCD
:00000001FF
