:100000000C9446000C945D000C945D000C945D0013
:100010000C945D000C945D000C945D000C945D00EC
:100020000C945D000C945D000C945D000C945D00DC
:100030000C945D000C945D000C945D000C945D00CC
:100040000C945D000C945D000C945D000C945D00BC
:100050000C945D000C945D000C945D000C945D00AC
:100060000C945D000C945D000C945D000C945D009C
:100070000C945D000C945D000C945D000C945D008C
:100080000C945D000C945D000C945D0011241FBE67
:10009000CFEFD0E1DEBFCDBF11E0A0E0B1E0ECE0FA
:1000A000F3E000E00BBF02C007900D92A030B10753
:1000B000D9F70E948E000C9484010C940000DF9309
:1000C000CF9300D000D00F92CDB7DEB79C838B8347
:1000D0000EC01A82198205C089819A8101969A837D
:1000E000898389819A8122E088359207A8F31D824D
:1000F0008B819C81009711F081E08D838B819C81A5
:1001000001979C838B832D81222319F70F900F90E9
:100110000F900F900F90CF91DF910895DF93CF93C1
:10012000CDB7DEB72C970FB6F894DEBF0FBECDBFAC
:100130001B861A861986E5E5F0E080EC8083E3E211
:10014000F0E01082A2E2B0E0E2E2F0E080818861BB
:100150008C9388EE93E00E945F0018861F82EAE08D
:10016000F3E88081882F90E09A87898789859A852E
:10017000982F88279A878987EBE0F3E88081282FDA
:1001800030E089859A85822B932B9A8789871B86F5
:1001900089859A8520E58037920719F48B858160DF
:1001A0008B8780E091E19A83898318861F821E8263
:1001B0001D821BC029813A818F819885822B932BC8
:1001C0009C838B83EB81FC8110828F819885880FC3
:1001D000991F98878F838F819885816098878F83F7
:1001E0008D819E8101969E838D838D819E8180313C
:1001F000910500F318861F821E821D8226C0298168
:100200003A818F819885822B932B9C838B83EB8102
:10021000FC818FEF80838B819C8101969C838B83F3
:10022000EB81FC8180818F3FA9F08F819885880FB9
:10023000991F98878F838F819885816098878F8396
:100240008D819E8101969E838D838D819E818F30CD
:100250009105A8F28D819E818F30910519F48B85CF
:1002600082608B878B85882F90E0817090708823C7
:10027000B1F0A3E2B0E0E3E2F0E08081877F8C930D
:1002800082E390E00E945F00A3E2B0E0E3E2F0E0EE
:10029000808188608C9388EE93E00E945F008B855C
:1002A000882F90E082709070009709F456CFA3E2F7
:1002B000B0E0E3E2F0E08081877F8C9382E390E01E
:1002C0000E945F00A3E2B0E0E3E2F0E0808188609A
:1002D0008C9382E390E00E945F00A3E2B0E0E3E24F
:1002E000F0E08081877F8C9382E390E00E945F0042
:1002F000A3E2B0E0E3E2F0E0808188608C9388EED6
:0C03000093E00E945F0029CFF894FFCF2B
:00000001FF
